{
  "_format": "hh-sol-artifact-1",
  "contractName": "DTO",
  "sourceName": "contracts/DTO.sol",
  "abi": [
    {
      "inputs": [
        {
          "internalType": "string",
          "name": "name_",
          "type": "string"
        },
        {
          "internalType": "string",
          "name": "symbol_",
          "type": "string"
        },
        {
          "internalType": "bool",
          "name": "statusPause",
          "type": "bool"
        },
        {
          "internalType": "bool",
          "name": "statusPrefix_",
          "type": "bool"
        }
      ],
      "stateMutability": "nonpayable",
      "type": "constructor"
    },
    {
      "anonymous": false,
      "inputs": [
        {
          "indexed": false,
          "internalType": "string",
          "name": "prefix_",
          "type": "string"
        },
        {
          "indexed": false,
          "internalType": "uint256",
          "name": "counter_",
          "type": "uint256"
        },
        {
          "indexed": false,
          "internalType": "uint256",
          "name": "price_",
          "type": "uint256"
        }
      ],
      "name": "AddPrefix",
      "type": "event"
    },
    {
      "anonymous": false,
      "inputs": [
        {
          "indexed": true,
          "internalType": "address",
          "name": "owner",
          "type": "address"
        },
        {
          "indexed": true,
          "internalType": "address",
          "name": "approved",
          "type": "address"
        },
        {
          "indexed": true,
          "internalType": "uint256",
          "name": "tokenId",
          "type": "uint256"
        }
      ],
      "name": "Approval",
      "type": "event"
    },
    {
      "anonymous": false,
      "inputs": [
        {
          "indexed": true,
          "internalType": "address",
          "name": "owner",
          "type": "address"
        },
        {
          "indexed": true,
          "internalType": "address",
          "name": "operator",
          "type": "address"
        },
        {
          "indexed": false,
          "internalType": "bool",
          "name": "approved",
          "type": "bool"
        }
      ],
      "name": "ApprovalForAll",
      "type": "event"
    },
    {
      "anonymous": false,
      "inputs": [
        {
          "indexed": false,
          "internalType": "uint256",
          "name": "id",
          "type": "uint256"
        },
        {
          "indexed": false,
          "internalType": "uint256",
          "name": "price_",
          "type": "uint256"
        }
      ],
      "name": "ChangePrice",
      "type": "event"
    },
    {
      "anonymous": false,
      "inputs": [
        {
          "indexed": false,
          "internalType": "uint256",
          "name": "prefixNumber",
          "type": "uint256"
        },
        {
          "indexed": false,
          "internalType": "uint256",
          "name": "duration",
          "type": "uint256"
        }
      ],
      "name": "MintNumber",
      "type": "event"
    },
    {
      "anonymous": false,
      "inputs": [
        {
          "indexed": true,
          "internalType": "address",
          "name": "previousOwner",
          "type": "address"
        },
        {
          "indexed": true,
          "internalType": "address",
          "name": "newOwner",
          "type": "address"
        }
      ],
      "name": "OwnershipTransferred",
      "type": "event"
    },
    {
      "anonymous": false,
      "inputs": [
        {
          "indexed": true,
          "internalType": "address",
          "name": "from",
          "type": "address"
        },
        {
          "indexed": true,
          "internalType": "address",
          "name": "to",
          "type": "address"
        },
        {
          "indexed": true,
          "internalType": "uint256",
          "name": "tokenId",
          "type": "uint256"
        }
      ],
      "name": "Transfer",
      "type": "event"
    },
    {
      "inputs": [],
      "name": "MIN_DURATION",
      "outputs": [
        {
          "internalType": "uint256",
          "name": "",
          "type": "uint256"
        }
      ],
      "stateMutability": "view",
      "type": "function"
    },
    {
      "inputs": [
        {
          "internalType": "string",
          "name": "prefix_",
          "type": "string"
        },
        {
          "internalType": "uint256",
          "name": "price",
          "type": "uint256"
        }
      ],
      "name": "addPrefix",
      "outputs": [
        {
          "internalType": "uint256",
          "name": "",
          "type": "uint256"
        }
      ],
      "stateMutability": "payable",
      "type": "function"
    },
    {
      "inputs": [
        {
          "internalType": "string",
          "name": "prefix_",
          "type": "string"
        },
        {
          "internalType": "uint256",
          "name": "price",
          "type": "uint256"
        }
      ],
      "name": "addPrefixOwner",
      "outputs": [
        {
          "internalType": "uint256",
          "name": "",
          "type": "uint256"
        }
      ],
      "stateMutability": "nonpayable",
      "type": "function"
    },
    {
      "inputs": [
        {
          "internalType": "address",
          "name": "to",
          "type": "address"
        },
        {
          "internalType": "uint256",
          "name": "tokenId",
          "type": "uint256"
        }
      ],
      "name": "approve",
      "outputs": [],
      "stateMutability": "nonpayable",
      "type": "function"
    },
    {
      "inputs": [
        {
          "internalType": "address",
          "name": "owner",
          "type": "address"
        }
      ],
      "name": "balanceOf",
      "outputs": [
        {
          "internalType": "uint256",
          "name": "",
          "type": "uint256"
        }
      ],
      "stateMutability": "view",
      "type": "function"
    },
    {
      "inputs": [],
      "name": "baseURI",
      "outputs": [
        {
          "internalType": "string",
          "name": "",
          "type": "string"
        }
      ],
      "stateMutability": "view",
      "type": "function"
    },
    {
      "inputs": [
        {
          "internalType": "string",
          "name": "prefix",
          "type": "string"
        },
        {
          "internalType": "address",
          "name": "newAddress",
          "type": "address"
        }
      ],
      "name": "changeOwnerPrerix",
      "outputs": [],
      "stateMutability": "nonpayable",
      "type": "function"
    },
    {
      "inputs": [
        {
          "internalType": "uint256",
          "name": "id",
          "type": "uint256"
        },
        {
          "internalType": "uint256",
          "name": "price",
          "type": "uint256"
        }
      ],
      "name": "changePrice",
      "outputs": [],
      "stateMutability": "nonpayable",
      "type": "function"
    },
    {
      "inputs": [],
      "name": "counter",
      "outputs": [
        {
          "internalType": "uint256",
          "name": "",
          "type": "uint256"
        }
      ],
      "stateMutability": "view",
      "type": "function"
    },
    {
      "inputs": [
        {
          "internalType": "uint256",
          "name": "",
          "type": "uint256"
        }
      ],
      "name": "endRent",
      "outputs": [
        {
          "internalType": "uint256",
          "name": "",
          "type": "uint256"
        }
      ],
      "stateMutability": "view",
      "type": "function"
    },
    {
      "inputs": [
        {
          "internalType": "uint256",
          "name": "tokenId",
          "type": "uint256"
        }
      ],
      "name": "getApproved",
      "outputs": [
        {
          "internalType": "address",
          "name": "",
          "type": "address"
        }
      ],
      "stateMutability": "view",
      "type": "function"
    },
    {
      "inputs": [
        {
          "internalType": "address",
          "name": "owner",
          "type": "address"
        },
        {
          "internalType": "address",
          "name": "operator",
          "type": "address"
        }
      ],
      "name": "isApprovedForAll",
      "outputs": [
        {
          "internalType": "bool",
          "name": "",
          "type": "bool"
        }
      ],
      "stateMutability": "view",
      "type": "function"
    },
    {
      "inputs": [],
      "name": "maxSizePrefix",
      "outputs": [
        {
          "internalType": "uint256",
          "name": "",
          "type": "uint256"
        }
      ],
      "stateMutability": "view",
      "type": "function"
    },
    {
      "inputs": [],
      "name": "name",
      "outputs": [
        {
          "internalType": "string",
          "name": "",
          "type": "string"
        }
      ],
      "stateMutability": "view",
      "type": "function"
    },
    {
      "inputs": [],
      "name": "owner",
      "outputs": [
        {
          "internalType": "address",
          "name": "",
          "type": "address"
        }
      ],
      "stateMutability": "view",
      "type": "function"
    },
    {
      "inputs": [
        {
          "internalType": "uint256",
          "name": "tokenId",
          "type": "uint256"
        }
      ],
      "name": "ownerOf",
      "outputs": [
        {
          "internalType": "address",
          "name": "",
          "type": "address"
        }
      ],
      "stateMutability": "view",
      "type": "function"
    },
    {
      "inputs": [],
      "name": "pause",
      "outputs": [
        {
          "internalType": "bool",
          "name": "",
          "type": "bool"
        }
      ],
      "stateMutability": "view",
      "type": "function"
    },
    {
      "inputs": [
        {
          "internalType": "string",
          "name": "",
          "type": "string"
        }
      ],
      "name": "prefixId",
      "outputs": [
        {
          "internalType": "uint256",
          "name": "",
          "type": "uint256"
        }
      ],
      "stateMutability": "view",
      "type": "function"
    },
    {
      "inputs": [
        {
          "internalType": "uint256",
          "name": "",
          "type": "uint256"
        }
      ],
      "name": "prefixName",
      "outputs": [
        {
          "internalType": "string",
          "name": "",
          "type": "string"
        }
      ],
      "stateMutability": "view",
      "type": "function"
    },
    {
      "inputs": [
        {
          "internalType": "uint256",
          "name": "",
          "type": "uint256"
        }
      ],
      "name": "prefixOwner",
      "outputs": [
        {
          "internalType": "address",
          "name": "",
          "type": "address"
        }
      ],
      "stateMutability": "view",
      "type": "function"
    },
    {
      "inputs": [
        {
          "internalType": "uint256",
          "name": "",
          "type": "uint256"
        }
      ],
      "name": "prefixPrice",
      "outputs": [
        {
          "internalType": "uint256",
          "name": "",
          "type": "uint256"
        }
      ],
      "stateMutability": "view",
      "type": "function"
    },
    {
      "inputs": [
        {
          "internalType": "uint256",
          "name": "prefixNumber",
          "type": "uint256"
        },
        {
          "internalType": "uint256",
          "name": "duration",
          "type": "uint256"
        }
      ],
      "name": "reRent",
      "outputs": [],
      "stateMutability": "payable",
      "type": "function"
    },
    {
      "inputs": [
        {
          "internalType": "uint256",
          "name": "prefixNumber",
          "type": "uint256"
        },
        {
          "internalType": "uint256",
          "name": "duration",
          "type": "uint256"
        }
      ],
      "name": "registerNumber",
      "outputs": [],
      "stateMutability": "payable",
      "type": "function"
    },
    {
      "inputs": [],
      "name": "renounceOwnership",
      "outputs": [],
      "stateMutability": "nonpayable",
      "type": "function"
    },
    {
      "inputs": [
        {
          "internalType": "address",
          "name": "from",
          "type": "address"
        },
        {
          "internalType": "address",
          "name": "to",
          "type": "address"
        },
        {
          "internalType": "uint256",
          "name": "tokenId",
          "type": "uint256"
        }
      ],
      "name": "safeTransferFrom",
      "outputs": [],
      "stateMutability": "nonpayable",
      "type": "function"
    },
    {
      "inputs": [
        {
          "internalType": "address",
          "name": "from",
          "type": "address"
        },
        {
          "internalType": "address",
          "name": "to",
          "type": "address"
        },
        {
          "internalType": "uint256",
          "name": "tokenId",
          "type": "uint256"
        },
        {
          "internalType": "bytes",
          "name": "_data",
          "type": "bytes"
        }
      ],
      "name": "safeTransferFrom",
      "outputs": [],
      "stateMutability": "nonpayable",
      "type": "function"
    },
    {
      "inputs": [
        {
          "internalType": "address",
          "name": "operator",
          "type": "address"
        },
        {
          "internalType": "bool",
          "name": "approved",
          "type": "bool"
        }
      ],
      "name": "setApprovalForAll",
      "outputs": [],
      "stateMutability": "nonpayable",
      "type": "function"
    },
    {
      "inputs": [
        {
          "internalType": "string",
          "name": "uri_",
          "type": "string"
        }
      ],
      "name": "setBaseURI",
      "outputs": [],
      "stateMutability": "nonpayable",
      "type": "function"
    },
    {
      "inputs": [
        {
          "internalType": "uint256",
          "name": "size",
          "type": "uint256"
        }
      ],
      "name": "setMaxSizePrefix",
      "outputs": [],
      "stateMutability": "nonpayable",
      "type": "function"
    },
    {
      "inputs": [
        {
          "internalType": "bool",
          "name": "status_",
          "type": "bool"
        }
      ],
      "name": "setPause",
      "outputs": [],
      "stateMutability": "nonpayable",
      "type": "function"
    },
    {
      "inputs": [
        {
          "internalType": "bool",
          "name": "status",
          "type": "bool"
        }
      ],
      "name": "setPausePrefix",
      "outputs": [],
      "stateMutability": "nonpayable",
      "type": "function"
    },
    {
      "inputs": [
        {
          "internalType": "uint256",
          "name": "price",
          "type": "uint256"
        }
      ],
      "name": "setSalePrice",
      "outputs": [],
      "stateMutability": "nonpayable",
      "type": "function"
    },
    {
      "inputs": [],
      "name": "statusPrefix",
      "outputs": [
        {
          "internalType": "bool",
          "name": "",
          "type": "bool"
        }
      ],
      "stateMutability": "view",
      "type": "function"
    },
    {
      "inputs": [
        {
          "internalType": "bytes4",
          "name": "interfaceId",
          "type": "bytes4"
        }
      ],
      "name": "supportsInterface",
      "outputs": [
        {
          "internalType": "bool",
          "name": "",
          "type": "bool"
        }
      ],
      "stateMutability": "view",
      "type": "function"
    },
    {
      "inputs": [],
      "name": "symbol",
      "outputs": [
        {
          "internalType": "string",
          "name": "",
          "type": "string"
        }
      ],
      "stateMutability": "view",
      "type": "function"
    },
    {
      "inputs": [
        {
          "internalType": "uint256",
          "name": "index",
          "type": "uint256"
        }
      ],
      "name": "tokenByIndex",
      "outputs": [
        {
          "internalType": "uint256",
          "name": "",
          "type": "uint256"
        }
      ],
      "stateMutability": "view",
      "type": "function"
    },
    {
      "inputs": [
        {
          "internalType": "address",
          "name": "owner",
          "type": "address"
        },
        {
          "internalType": "uint256",
          "name": "index",
          "type": "uint256"
        }
      ],
      "name": "tokenOfOwnerByIndex",
      "outputs": [
        {
          "internalType": "uint256",
          "name": "",
          "type": "uint256"
        }
      ],
      "stateMutability": "view",
      "type": "function"
    },
    {
      "inputs": [
        {
          "internalType": "uint256",
          "name": "tokenId",
          "type": "uint256"
        }
      ],
      "name": "tokenURI",
      "outputs": [
        {
          "internalType": "string",
          "name": "",
          "type": "string"
        }
      ],
      "stateMutability": "view",
      "type": "function"
    },
    {
      "inputs": [],
      "name": "totalSupply",
      "outputs": [
        {
          "internalType": "uint256",
          "name": "",
          "type": "uint256"
        }
      ],
      "stateMutability": "view",
      "type": "function"
    },
    {
      "inputs": [
        {
          "internalType": "address",
          "name": "from",
          "type": "address"
        },
        {
          "internalType": "address",
          "name": "to",
          "type": "address"
        },
        {
          "internalType": "uint256",
          "name": "tokenId",
          "type": "uint256"
        }
      ],
      "name": "transferFrom",
      "outputs": [],
      "stateMutability": "nonpayable",
      "type": "function"
    },
    {
      "inputs": [
        {
          "internalType": "address",
          "name": "newOwner",
          "type": "address"
        }
      ],
      "name": "transferOwnership",
      "outputs": [],
      "stateMutability": "nonpayable",
      "type": "function"
    }
  ],
  "bytecode": "0x608060405262989680600c55600a600d5568056bc75e2d63100000600e553480156200002a57600080fd5b5060405162006191380380620061918339818101604052810190620000509190620002eb565b838381600090805190602001906200006a929190620001b2565b50806001908051906020019062000083929190620001b2565b505050620000a66200009a620000e460201b60201c565b620000ec60201b60201c565b81601460006101000a81548160ff02191690831515021790555080601460016101000a81548160ff021916908315150217905550505050506200051f565b600033905090565b6000600a60009054906101000a900473ffffffffffffffffffffffffffffffffffffffff16905081600a60006101000a81548173ffffffffffffffffffffffffffffffffffffffff021916908373ffffffffffffffffffffffffffffffffffffffff1602179055508173ffffffffffffffffffffffffffffffffffffffff168173ffffffffffffffffffffffffffffffffffffffff167f8be0079c531659141344cd1fd0a4f28419497f9722a3daafe3b4186f6b6457e060405160405180910390a35050565b828054620001c0906200042a565b90600052602060002090601f016020900481019282620001e4576000855562000230565b82601f10620001ff57805160ff191683800117855562000230565b8280016001018555821562000230579182015b828111156200022f57825182559160200191906001019062000212565b5b5090506200023f919062000243565b5090565b5b808211156200025e57600081600090555060010162000244565b5090565b6000620002796200027384620003b2565b62000389565b9050828152602081018484840111156200029257600080fd5b6200029f848285620003f4565b509392505050565b600081519050620002b88162000505565b92915050565b600082601f830112620002d057600080fd5b8151620002e284826020860162000262565b91505092915050565b600080600080608085870312156200030257600080fd5b600085015167ffffffffffffffff8111156200031d57600080fd5b6200032b87828801620002be565b945050602085015167ffffffffffffffff8111156200034957600080fd5b6200035787828801620002be565b93505060406200036a87828801620002a7565b92505060606200037d87828801620002a7565b91505092959194509250565b600062000395620003a8565b9050620003a3828262000460565b919050565b6000604051905090565b600067ffffffffffffffff821115620003d057620003cf620004c5565b5b620003db82620004f4565b9050602081019050919050565b60008115159050919050565b60005b8381101562000414578082015181840152602081019050620003f7565b8381111562000424576000848401525b50505050565b600060028204905060018216806200044357607f821691505b602082108114156200045a576200045962000496565b5b50919050565b6200046b82620004f4565b810181811067ffffffffffffffff821117156200048d576200048c620004c5565b5b80604052505050565b7f4e487b7100000000000000000000000000000000000000000000000000000000600052602260045260246000fd5b7f4e487b7100000000000000000000000000000000000000000000000000000000600052604160045260246000fd5b6000601f19601f8301169050919050565b6200051081620003e8565b81146200051c57600080fd5b50565b615c62806200052f6000396000f3fe6080604052600436106102465760003560e01c806370a0823111610139578063a22cb465116100b6578063bedb86fb1161007a578063bedb86fb146108b1578063c87b56dd146108da578063cf6f76c314610917578063df01f19914610940578063e985e9c51461097d578063f2fde38b146109ba57610246565b8063a22cb465146107ef578063b3de019c14610818578063b6a6d17714610841578063b88d4fde1461086c578063bb732f431461089557610246565b80638af4773c116100fd5780638af4773c146106f45780638c7b3767146107315780638da5cb5b1461075c57806395d89b41146107875780639b8caf04146107b257610246565b806370a082311461060d578063715018a61461064a578063797c5359146106615780637f8306181461069e5780638456cb59146106c957610246565b806342842e0e116101c757806361bc221a1161018b57806361bc221a1461050d5780636352211e14610538578063658c7497146105755780636b3f7724146105b25780636c0360eb146105e257610246565b806342842e0e146104185780634f6ccce714610441578063547c674d1461047e57806355adaf43146104a757806355f804b3146104e457610246565b80631919fed71161020e5780631919fed71461034457806323b872dd1461036d5780632b946320146103965780632f745c59146103b2578063343e77ff146103ef57610246565b806301ffc9a71461024b57806306fdde0314610288578063081812fc146102b3578063095ea7b3146102f057806318160ddd14610319575b600080fd5b34801561025757600080fd5b50610272600480360381019061026d9190614066565b6109e3565b60405161027f91906148f9565b60405180910390f35b34801561029457600080fd5b5061029d610a5d565b6040516102aa9190614914565b60405180910390f35b3480156102bf57600080fd5b506102da60048036038101906102d591906141a1565b610aef565b6040516102e79190614892565b60405180910390f35b3480156102fc57600080fd5b5061031760048036038101906103129190614001565b610b74565b005b34801561032557600080fd5b5061032e610c8c565b60405161033b9190614db4565b60405180910390f35b34801561035057600080fd5b5061036b600480360381019061036691906141a1565b610c99565b005b34801561037957600080fd5b50610394600480360381019061038f9190613efb565b610d1f565b005b6103b060048036038101906103ab91906141ca565b610d7f565b005b3480156103be57600080fd5b506103d960048036038101906103d49190614001565b611166565b6040516103e69190614db4565b60405180910390f35b3480156103fb57600080fd5b50610416600480360381019061041191906140f9565b61120b565b005b34801561042457600080fd5b5061043f600480360381019061043a9190613efb565b61133e565b005b34801561044d57600080fd5b50610468600480360381019061046391906141a1565b61135e565b6040516104759190614db4565b60405180910390f35b34801561048a57600080fd5b506104a560048036038101906104a091906141a1565b6113f5565b005b3480156104b357600080fd5b506104ce60048036038101906104c991906141a1565b61147b565b6040516104db9190614914565b60405180910390f35b3480156104f057600080fd5b5061050b600480360381019061050691906140b8565b61151b565b005b34801561051957600080fd5b506105226115b1565b60405161052f9190614db4565b60405180910390f35b34801561054457600080fd5b5061055f600480360381019061055a91906141a1565b6115b7565b60405161056c9190614892565b60405180910390f35b34801561058157600080fd5b5061059c600480360381019061059791906141a1565b611669565b6040516105a99190614db4565b60405180910390f35b6105cc60048036038101906105c7919061414d565b611681565b6040516105d99190614db4565b60405180910390f35b3480156105ee57600080fd5b506105f7611833565b6040516106049190614914565b60405180910390f35b34801561061957600080fd5b50610634600480360381019061062f9190613e96565b611842565b6040516106419190614db4565b60405180910390f35b34801561065657600080fd5b5061065f6118fa565b005b34801561066d57600080fd5b50610688600480360381019061068391906141a1565b611982565b6040516106959190614db4565b60405180910390f35b3480156106aa57600080fd5b506106b361199a565b6040516106c09190614db4565b60405180910390f35b3480156106d557600080fd5b506106de6119a0565b6040516106eb91906148f9565b60405180910390f35b34801561070057600080fd5b5061071b600480360381019061071691906140b8565b6119b3565b6040516107289190614db4565b60405180910390f35b34801561073d57600080fd5b506107466119e1565b60405161075391906148f9565b60405180910390f35b34801561076857600080fd5b506107716119f4565b60405161077e9190614892565b60405180910390f35b34801561079357600080fd5b5061079c611a1e565b6040516107a99190614914565b60405180910390f35b3480156107be57600080fd5b506107d960048036038101906107d4919061414d565b611ab0565b6040516107e69190614db4565b60405180910390f35b3480156107fb57600080fd5b5061081660048036038101906108119190613fc5565b611bdf565b005b34801561082457600080fd5b5061083f600480360381019061083a91906141ca565b611bf5565b005b34801561084d57600080fd5b50610856611d3a565b6040516108639190614db4565b60405180910390f35b34801561087857600080fd5b50610893600480360381019061088e9190613f4a565b611d42565b005b6108af60048036038101906108aa91906141ca565b611da4565b005b3480156108bd57600080fd5b506108d860048036038101906108d3919061403d565b611ff0565b005b3480156108e657600080fd5b5061090160048036038101906108fc91906141a1565b612089565b60405161090e9190614914565b60405180910390f35b34801561092357600080fd5b5061093e6004803603810190610939919061403d565b6121cb565b005b34801561094c57600080fd5b50610967600480360381019061096291906141a1565b612264565b6040516109749190614892565b60405180910390f35b34801561098957600080fd5b506109a4600480360381019061099f9190613ebf565b612297565b6040516109b191906148f9565b60405180910390f35b3480156109c657600080fd5b506109e160048036038101906109dc9190613e96565b61232b565b005b60007f780e9d63000000000000000000000000000000000000000000000000000000007bffffffffffffffffffffffffffffffffffffffffffffffffffffffff1916827bffffffffffffffffffffffffffffffffffffffffffffffffffffffff19161480610a565750610a5582612423565b5b9050919050565b606060008054610a6c9061521e565b80601f0160208091040260200160405190810160405280929190818152602001828054610a989061521e565b8015610ae55780601f10610aba57610100808354040283529160200191610ae5565b820191906000526020600020905b815481529060010190602001808311610ac857829003601f168201915b5050505050905090565b6000610afa82612505565b610b39576040517f08c379a0000000000000000000000000000000000000000000000000000000008152600401610b3090614c54565b60405180910390fd5b6004600083815260200190815260200160002060009054906101000a900473ffffffffffffffffffffffffffffffffffffffff169050919050565b6000610b7f826115b7565b90508073ffffffffffffffffffffffffffffffffffffffff168373ffffffffffffffffffffffffffffffffffffffff161415610bf0576040517f08c379a0000000000000000000000000000000000000000000000000000000008152600401610be790614d14565b60405180910390fd5b8073ffffffffffffffffffffffffffffffffffffffff16610c0f612571565b73ffffffffffffffffffffffffffffffffffffffff161480610c3e5750610c3d81610c38612571565b612297565b5b610c7d576040517f08c379a0000000000000000000000000000000000000000000000000000000008152600401610c7490614bd4565b60405180910390fd5b610c878383612579565b505050565b6000600880549050905090565b610ca1612571565b73ffffffffffffffffffffffffffffffffffffffff16610cbf6119f4565b73ffffffffffffffffffffffffffffffffffffffff1614610d15576040517f08c379a0000000000000000000000000000000000000000000000000000000008152600401610d0c90614c74565b60405180910390fd5b80600e8190555050565b610d30610d2a612571565b82612632565b610d6f576040517f08c379a0000000000000000000000000000000000000000000000000000000008152600401610d6690614d34565b60405180910390fd5b610d7a838383612710565b505050565b601460009054906101000a900460ff16610dce576040517f08c379a0000000000000000000000000000000000000000000000000000000008152600401610dc590614b54565b60405180910390fd5b60136000838152602001908152602001600020544211610e23576040517f08c379a0000000000000000000000000000000000000000000000000000000008152600401610e1a90614a94565b60405180910390fd5b6301e13380811015610e6a576040517f08c379a0000000000000000000000000000000000000000000000000000000008152600401610e6190614ab4565b60405180910390fd5b6000610e7583612977565b5190506000600882610e879190615134565b600a610e939190614fbc565b84610e9e9190614f38565b9050600073ffffffffffffffffffffffffffffffffffffffff166010600083815260200190815260200160002060009054906101000a900473ffffffffffffffffffffffffffffffffffffffff1673ffffffffffffffffffffffffffffffffffffffff161415610f43576040517f08c379a0000000000000000000000000000000000000000000000000000000008152600401610f3a90614a14565b60405180910390fd5b600b600883610f529190615134565b10610f92576040517f08c379a0000000000000000000000000000000000000000000000000000000008152600401610f8990614cf4565b60405180910390fd5b6301e1338083600f600084815260200190815260200160002054610fb691906150da565b610fc09190614f38565b341015611002576040517f08c379a0000000000000000000000000000000000000000000000000000000008152600401610ff990614bb4565b60405180910390fd5b824261100e9190614ee2565b601360008681526020019081526020016000208190555061102e84612505565b1561103d5761103c84612b24565b5b6110473385612c41565b7fe39cfa7f4bb98654fa17754b66c148c1157896147ba09d8902ee5b4143e262b88484604051611078929190614dcf565b60405180910390a160006010600083815260200190815260200160002060009054906101000a900473ffffffffffffffffffffffffffffffffffffffff1673ffffffffffffffffffffffffffffffffffffffff16346040516110d99061487d565b60006040518083038185875af1925050503d8060008114611116576040519150601f19603f3d011682016040523d82523d6000602084013e61111b565b606091505b505090508061115f576040517f08c379a000000000000000000000000000000000000000000000000000000000815260040161115690614b14565b60405180910390fd5b5050505050565b600061117183611842565b82106111b2576040517f08c379a00000000000000000000000000000000000000000000000000000000081526004016111a9906149d4565b60405180910390fd5b600660008473ffffffffffffffffffffffffffffffffffffffff1673ffffffffffffffffffffffffffffffffffffffff168152602001908152602001600020600083815260200190815260200160002054905092915050565b3373ffffffffffffffffffffffffffffffffffffffff1660106000601285604051611236919061481e565b908152602001604051809103902054815260200190815260200160002060009054906101000a900473ffffffffffffffffffffffffffffffffffffffff1673ffffffffffffffffffffffffffffffffffffffff16146112ca576040517f08c379a00000000000000000000000000000000000000000000000000000000081526004016112c1906149b4565b60405180910390fd5b80601060006012856040516112df919061481e565b908152602001604051809103902054815260200190815260200160002060006101000a81548173ffffffffffffffffffffffffffffffffffffffff021916908373ffffffffffffffffffffffffffffffffffffffff1602179055505050565b61135983838360405180602001604052806000815250611d42565b505050565b6000611368610c8c565b82106113a9576040517f08c379a00000000000000000000000000000000000000000000000000000000081526004016113a090614d74565b60405180910390fd5b600882815481106113e3577f4e487b7100000000000000000000000000000000000000000000000000000000600052603260045260246000fd5b90600052602060002001549050919050565b6113fd612571565b73ffffffffffffffffffffffffffffffffffffffff1661141b6119f4565b73ffffffffffffffffffffffffffffffffffffffff1614611471576040517f08c379a000000000000000000000000000000000000000000000000000000000815260040161146890614c74565b60405180910390fd5b80600d8190555050565b6011602052806000526040600020600091509050805461149a9061521e565b80601f01602080910402602001604051908101604052809291908181526020018280546114c69061521e565b80156115135780601f106114e857610100808354040283529160200191611513565b820191906000526020600020905b8154815290600101906020018083116114f657829003601f168201915b505050505081565b611523612571565b73ffffffffffffffffffffffffffffffffffffffff166115416119f4565b73ffffffffffffffffffffffffffffffffffffffff1614611597576040517f08c379a000000000000000000000000000000000000000000000000000000000815260040161158e90614c74565b60405180910390fd5b80600b90805190602001906115ad929190613cba565b5050565b600c5481565b6000806002600084815260200190815260200160002060009054906101000a900473ffffffffffffffffffffffffffffffffffffffff169050600073ffffffffffffffffffffffffffffffffffffffff168173ffffffffffffffffffffffffffffffffffffffff161415611660576040517f08c379a000000000000000000000000000000000000000000000000000000000815260040161165790614c14565b60405180910390fd5b80915050919050565b600f6020528060005260406000206000915090505481565b6000601460009054906101000a900460ff166116d2576040517f08c379a00000000000000000000000000000000000000000000000000000000081526004016116c990614b54565b60405180910390fd5b601460019054906101000a900460ff16611721576040517f08c379a000000000000000000000000000000000000000000000000000000000815260040161171890614d94565b60405180910390fd5b600e54341015611766576040517f08c379a000000000000000000000000000000000000000000000000000000000815260040161175d90614bb4565b60405180910390fd5b6000611773848433612c5f565b9050600061177f6119f4565b73ffffffffffffffffffffffffffffffffffffffff16346040516117a29061487d565b60006040518083038185875af1925050503d80600081146117df576040519150601f19603f3d011682016040523d82523d6000602084013e6117e4565b606091505b5050905080611828576040517f08c379a000000000000000000000000000000000000000000000000000000000815260040161181f90614b14565b60405180910390fd5b819250505092915050565b606061183d612f4b565b905090565b60008073ffffffffffffffffffffffffffffffffffffffff168273ffffffffffffffffffffffffffffffffffffffff1614156118b3576040517f08c379a00000000000000000000000000000000000000000000000000000000081526004016118aa90614bf4565b60405180910390fd5b600360008373ffffffffffffffffffffffffffffffffffffffff1673ffffffffffffffffffffffffffffffffffffffff168152602001908152602001600020549050919050565b611902612571565b73ffffffffffffffffffffffffffffffffffffffff166119206119f4565b73ffffffffffffffffffffffffffffffffffffffff1614611976576040517f08c379a000000000000000000000000000000000000000000000000000000000815260040161196d90614c74565b60405180910390fd5b6119806000612fdd565b565b60136020528060005260406000206000915090505481565b600d5481565b601460009054906101000a900460ff1681565b6012818051602081018201805184825260208301602085012081835280955050505050506000915090505481565b601460019054906101000a900460ff1681565b6000600a60009054906101000a900473ffffffffffffffffffffffffffffffffffffffff16905090565b606060018054611a2d9061521e565b80601f0160208091040260200160405190810160405280929190818152602001828054611a599061521e565b8015611aa65780601f10611a7b57610100808354040283529160200191611aa6565b820191906000526020600020905b815481529060010190602001808311611a8957829003601f168201915b5050505050905090565b6000611aba612571565b73ffffffffffffffffffffffffffffffffffffffff16611ad86119f4565b73ffffffffffffffffffffffffffffffffffffffff1614611b2e576040517f08c379a0000000000000000000000000000000000000000000000000000000008152600401611b2590614c74565b60405180910390fd5b601460009054906101000a900460ff16611b7d576040517f08c379a0000000000000000000000000000000000000000000000000000000008152600401611b7490614b54565b60405180910390fd5b601460019054906101000a900460ff16611bcc576040517f08c379a0000000000000000000000000000000000000000000000000000000008152600401611bc390614d94565b60405180910390fd5b611bd7838333612c5f565b905092915050565b611bf1611bea612571565b83836130a3565b5050565b601460009054906101000a900460ff16611c44576040517f08c379a0000000000000000000000000000000000000000000000000000000008152600401611c3b90614b54565b60405180910390fd5b3373ffffffffffffffffffffffffffffffffffffffff166010600084815260200190815260200160002060009054906101000a900473ffffffffffffffffffffffffffffffffffffffff1673ffffffffffffffffffffffffffffffffffffffff1614611ce5576040517f08c379a0000000000000000000000000000000000000000000000000000000008152600401611cdc90614974565b60405180910390fd5b80600f6000848152602001908152602001600020819055507f7a23754ec05fb9abcc146d222035598f3cf9aac8c35fe1c74b08f0b7717713a48282604051611d2e929190614dcf565b60405180910390a15050565b6301e1338081565b611d53611d4d612571565b83612632565b611d92576040517f08c379a0000000000000000000000000000000000000000000000000000000008152600401611d8990614d34565b60405180910390fd5b611d9e84848484613210565b50505050565b601460009054906101000a900460ff16611df3576040517f08c379a0000000000000000000000000000000000000000000000000000000008152600401611dea90614b54565b60405180910390fd5b6301e13380811015611e3a576040517f08c379a0000000000000000000000000000000000000000000000000000000008152600401611e3190614ab4565b60405180910390fd5b6000611e4583612977565b5190506000600882611e579190615134565b600a611e639190614fbc565b84611e6e9190614f38565b90506301e1338083600f600084815260200190815260200160002054611e9491906150da565b611e9e9190614f38565b341015611ee0576040517f08c379a0000000000000000000000000000000000000000000000000000000008152600401611ed790614bb4565b60405180910390fd5b82601360008681526020019081526020016000206000828254611f039190614ee2565b9250508190555060006010600083815260200190815260200160002060009054906101000a900473ffffffffffffffffffffffffffffffffffffffff1673ffffffffffffffffffffffffffffffffffffffff1634604051611f639061487d565b60006040518083038185875af1925050503d8060008114611fa0576040519150601f19603f3d011682016040523d82523d6000602084013e611fa5565b606091505b5050905080611fe9576040517f08c379a0000000000000000000000000000000000000000000000000000000008152600401611fe090614b14565b60405180910390fd5b5050505050565b611ff8612571565b73ffffffffffffffffffffffffffffffffffffffff166120166119f4565b73ffffffffffffffffffffffffffffffffffffffff161461206c576040517f08c379a000000000000000000000000000000000000000000000000000000000815260040161206390614c74565b60405180910390fd5b80601460006101000a81548160ff02191690831515021790555050565b606061209482612505565b6120d3576040517f08c379a00000000000000000000000000000000000000000000000000000000081526004016120ca90614cd4565b60405180910390fd5b60006120de83612977565b51905060006008826120f09190615134565b600a6120fc9190614fbc565b846121079190614f38565b905060006008836121189190615134565b600a6121249190614fbc565b8561212f91906152ca565b9050600061213b612f4b565b6011600085815260200190815260200160002060405160200161215f929190614859565b6040516020818303038152906040529050600061217a612f4b565b511161219557604051806020016040528060008152506121c0565b8061219f83612977565b6040516020016121b0929190614835565b6040516020818303038152906040525b945050505050919050565b6121d3612571565b73ffffffffffffffffffffffffffffffffffffffff166121f16119f4565b73ffffffffffffffffffffffffffffffffffffffff1614612247576040517f08c379a000000000000000000000000000000000000000000000000000000000815260040161223e90614c74565b60405180910390fd5b80601460016101000a81548160ff02191690831515021790555050565b60106020528060005260406000206000915054906101000a900473ffffffffffffffffffffffffffffffffffffffff1681565b6000600560008473ffffffffffffffffffffffffffffffffffffffff1673ffffffffffffffffffffffffffffffffffffffff16815260200190815260200160002060008373ffffffffffffffffffffffffffffffffffffffff1673ffffffffffffffffffffffffffffffffffffffff16815260200190815260200160002060009054906101000a900460ff16905092915050565b612333612571565b73ffffffffffffffffffffffffffffffffffffffff166123516119f4565b73ffffffffffffffffffffffffffffffffffffffff16146123a7576040517f08c379a000000000000000000000000000000000000000000000000000000000815260040161239e90614c74565b60405180910390fd5b600073ffffffffffffffffffffffffffffffffffffffff168173ffffffffffffffffffffffffffffffffffffffff161415612417576040517f08c379a000000000000000000000000000000000000000000000000000000000815260040161240e90614a34565b60405180910390fd5b61242081612fdd565b50565b60007f80ac58cd000000000000000000000000000000000000000000000000000000007bffffffffffffffffffffffffffffffffffffffffffffffffffffffff1916827bffffffffffffffffffffffffffffffffffffffffffffffffffffffff191614806124ee57507f5b5e139f000000000000000000000000000000000000000000000000000000007bffffffffffffffffffffffffffffffffffffffffffffffffffffffff1916827bffffffffffffffffffffffffffffffffffffffffffffffffffffffff1916145b806124fe57506124fd8261326c565b5b9050919050565b60008073ffffffffffffffffffffffffffffffffffffffff166002600084815260200190815260200160002060009054906101000a900473ffffffffffffffffffffffffffffffffffffffff1673ffffffffffffffffffffffffffffffffffffffff1614159050919050565b600033905090565b816004600083815260200190815260200160002060006101000a81548173ffffffffffffffffffffffffffffffffffffffff021916908373ffffffffffffffffffffffffffffffffffffffff160217905550808273ffffffffffffffffffffffffffffffffffffffff166125ec836115b7565b73ffffffffffffffffffffffffffffffffffffffff167f8c5be1e5ebec7d5bd14f71427d1e84f3dd0314c0f7b2291e5b200ac8c7c3b92560405160405180910390a45050565b600061263d82612505565b61267c576040517f08c379a000000000000000000000000000000000000000000000000000000000815260040161267390614b34565b60405180910390fd5b6000612687836115b7565b90508073ffffffffffffffffffffffffffffffffffffffff168473ffffffffffffffffffffffffffffffffffffffff1614806126c957506126c88185612297565b5b8061270757508373ffffffffffffffffffffffffffffffffffffffff166126ef84610aef565b73ffffffffffffffffffffffffffffffffffffffff16145b91505092915050565b8273ffffffffffffffffffffffffffffffffffffffff16612730826115b7565b73ffffffffffffffffffffffffffffffffffffffff1614612786576040517f08c379a000000000000000000000000000000000000000000000000000000000815260040161277d90614a54565b60405180910390fd5b600073ffffffffffffffffffffffffffffffffffffffff168273ffffffffffffffffffffffffffffffffffffffff1614156127f6576040517f08c379a00000000000000000000000000000000000000000000000000000000081526004016127ed90614ad4565b60405180910390fd5b6128018383836132d6565b61280c600082612579565b6001600360008573ffffffffffffffffffffffffffffffffffffffff1673ffffffffffffffffffffffffffffffffffffffff168152602001908152602001600020600082825461285c9190615134565b925050819055506001600360008473ffffffffffffffffffffffffffffffffffffffff1673ffffffffffffffffffffffffffffffffffffffff16815260200190815260200160002060008282546128b39190614ee2565b92505081905550816002600083815260200190815260200160002060006101000a81548173ffffffffffffffffffffffffffffffffffffffff021916908373ffffffffffffffffffffffffffffffffffffffff160217905550808273ffffffffffffffffffffffffffffffffffffffff168473ffffffffffffffffffffffffffffffffffffffff167fddf252ad1be2c89b69c2b068fc378daa952ba7f163c4a11628f55a4df523b3ef60405160405180910390a46129728383836133ea565b505050565b606060008214156129bf576040518060400160405280600181526020017f30000000000000000000000000000000000000000000000000000000000000008152509050612b1f565b600082905060005b600082146129f15780806129da90615281565b915050600a826129ea9190614f38565b91506129c7565b60008167ffffffffffffffff811115612a33577f4e487b7100000000000000000000000000000000000000000000000000000000600052604160045260246000fd5b6040519080825280601f01601f191660200182016040528015612a655781602001600182028036833780820191505090505b5090505b60008514612b1857600182612a7e9190615134565b9150600a85612a8d91906152ca565b6030612a999190614ee2565b60f81b818381518110612ad5577f4e487b7100000000000000000000000000000000000000000000000000000000600052603260045260246000fd5b60200101907effffffffffffffffffffffffffffffffffffffffffffffffffffffffffffff1916908160001a905350600a85612b119190614f38565b9450612a69565b8093505050505b919050565b6000612b2f826115b7565b9050612b3d816000846132d6565b612b48600083612579565b6001600360008373ffffffffffffffffffffffffffffffffffffffff1673ffffffffffffffffffffffffffffffffffffffff1681526020019081526020016000206000828254612b989190615134565b925050819055506002600083815260200190815260200160002060006101000a81549073ffffffffffffffffffffffffffffffffffffffff021916905581600073ffffffffffffffffffffffffffffffffffffffff168273ffffffffffffffffffffffffffffffffffffffff167fddf252ad1be2c89b69c2b068fc378daa952ba7f163c4a11628f55a4df523b3ef60405160405180910390a4612c3d816000846133ea565b5050565b612c5b8282604051806020016040528060008152506133ef565b5050565b600080845111612ca4576040517f08c379a0000000000000000000000000000000000000000000000000000000008152600401612c9b90614cb4565b60405180910390fd5b600d54845110612ce9576040517f08c379a0000000000000000000000000000000000000000000000000000000008152600401612ce090614c94565b60405180910390fd5b612d2a846040518060400160405280600181526020017f2000000000000000000000000000000000000000000000000000000000000000815250600061344a565b612d69576040517f08c379a0000000000000000000000000000000000000000000000000000000008152600401612d6090614d54565b60405180910390fd5b6305f5e100601285604051612d7e919061481e565b90815260200160405180910390205410612dcd576040517f08c379a0000000000000000000000000000000000000000000000000000000008152600401612dc490614994565b60405180910390fd5b6305f5e100600c5410612e15576040517f08c379a0000000000000000000000000000000000000000000000000000000008152600401612e0c90614b94565b60405180910390fd5b82600f6000600c548152602001908152602001600020819055508160106000600c54815260200190815260200160002060006101000a81548173ffffffffffffffffffffffffffffffffffffffff021916908373ffffffffffffffffffffffffffffffffffffffff1602179055508360116000600c5481526020019081526020016000209080519060200190612eac929190613cba565b50600c54601285604051612ec0919061481e565b908152602001604051809103902081905550600c6000815480929190612ee590615281565b91905055507f2fad62afe9506d0ce0faee4cfbcaf1210549a3243358476491c4fcda12280d50846001600c54612f1b9190615134565b85604051612f2b93929190614936565b60405180910390a16001600c54612f429190615134565b90509392505050565b6060600b8054612f5a9061521e565b80601f0160208091040260200160405190810160405280929190818152602001828054612f869061521e565b8015612fd35780601f10612fa857610100808354040283529160200191612fd3565b820191906000526020600020905b815481529060010190602001808311612fb657829003601f168201915b5050505050905090565b6000600a60009054906101000a900473ffffffffffffffffffffffffffffffffffffffff16905081600a60006101000a81548173ffffffffffffffffffffffffffffffffffffffff021916908373ffffffffffffffffffffffffffffffffffffffff1602179055508173ffffffffffffffffffffffffffffffffffffffff168173ffffffffffffffffffffffffffffffffffffffff167f8be0079c531659141344cd1fd0a4f28419497f9722a3daafe3b4186f6b6457e060405160405180910390a35050565b8173ffffffffffffffffffffffffffffffffffffffff168373ffffffffffffffffffffffffffffffffffffffff161415613112576040517f08c379a000000000000000000000000000000000000000000000000000000000815260040161310990614af4565b60405180910390fd5b80600560008573ffffffffffffffffffffffffffffffffffffffff1673ffffffffffffffffffffffffffffffffffffffff16815260200190815260200160002060008473ffffffffffffffffffffffffffffffffffffffff1673ffffffffffffffffffffffffffffffffffffffff16815260200190815260200160002060006101000a81548160ff0219169083151502179055508173ffffffffffffffffffffffffffffffffffffffff168373ffffffffffffffffffffffffffffffffffffffff167f17307eab39ab6107e8899845ad3d59bd9653f200f220920489ca2b5937696c318360405161320391906148f9565b60405180910390a3505050565b61321b848484612710565b613227848484846135a9565b613266576040517f08c379a000000000000000000000000000000000000000000000000000000000815260040161325d906149f4565b60405180910390fd5b50505050565b60007f01ffc9a7000000000000000000000000000000000000000000000000000000007bffffffffffffffffffffffffffffffffffffffffffffffffffffffff1916827bffffffffffffffffffffffffffffffffffffffffffffffffffffffff1916149050919050565b6132e1838383613740565b600073ffffffffffffffffffffffffffffffffffffffff168373ffffffffffffffffffffffffffffffffffffffff1614156133245761331f81613745565b613363565b8173ffffffffffffffffffffffffffffffffffffffff168373ffffffffffffffffffffffffffffffffffffffff161461336257613361838261378e565b5b5b600073ffffffffffffffffffffffffffffffffffffffff168273ffffffffffffffffffffffffffffffffffffffff1614156133a6576133a1816138fb565b6133e5565b8273ffffffffffffffffffffffffffffffffffffffff168273ffffffffffffffffffffffffffffffffffffffff16146133e4576133e38282613a3e565b5b5b505050565b505050565b6133f98383613abd565b61340660008484846135a9565b613445576040517f08c379a000000000000000000000000000000000000000000000000000000000815260040161343c906149f4565b60405180910390fd5b505050565b60008084905060008490506001815114613499576040517f08c379a000000000000000000000000000000000000000000000000000000000815260040161349090614b74565b60405180910390fd5b60008490505b825181101561359a57816000815181106134e2577f4e487b7100000000000000000000000000000000000000000000000000000000600052603260045260246000fd5b602001015160f81c60f81b7effffffffffffffffffffffffffffffffffffffffffffffffffffffffffffff1916838281518110613548577f4e487b7100000000000000000000000000000000000000000000000000000000600052603260045260246000fd5b602001015160f81c60f81b7effffffffffffffffffffffffffffffffffffffffffffffffffffffffffffff1916141561358757600093505050506135a2565b808061359290615281565b91505061349f565b506001925050505b9392505050565b60006135ca8473ffffffffffffffffffffffffffffffffffffffff16613c97565b15613733578373ffffffffffffffffffffffffffffffffffffffff1663150b7a026135f3612571565b8786866040518563ffffffff1660e01b815260040161361594939291906148ad565b602060405180830381600087803b15801561362f57600080fd5b505af192505050801561366057506040513d601f19601f8201168201806040525081019061365d919061408f565b60015b6136e3573d8060008114613690576040519150601f19603f3d011682016040523d82523d6000602084013e613695565b606091505b506000815114156136db576040517f08c379a00000000000000000000000000000000000000000000000000000000081526004016136d2906149f4565b60405180910390fd5b805181602001fd5b63150b7a0260e01b7bffffffffffffffffffffffffffffffffffffffffffffffffffffffff1916817bffffffffffffffffffffffffffffffffffffffffffffffffffffffff191614915050613738565b600190505b949350505050565b505050565b6008805490506009600083815260200190815260200160002081905550600881908060018154018082558091505060019003906000526020600020016000909190919091505550565b6000600161379b84611842565b6137a59190615134565b905060006007600084815260200190815260200160002054905081811461388a576000600660008673ffffffffffffffffffffffffffffffffffffffff1673ffffffffffffffffffffffffffffffffffffffff168152602001908152602001600020600084815260200190815260200160002054905080600660008773ffffffffffffffffffffffffffffffffffffffff1673ffffffffffffffffffffffffffffffffffffffff168152602001908152602001600020600084815260200190815260200160002081905550816007600083815260200190815260200160002081905550505b6007600084815260200190815260200160002060009055600660008573ffffffffffffffffffffffffffffffffffffffff1673ffffffffffffffffffffffffffffffffffffffff16815260200190815260200160002060008381526020019081526020016000206000905550505050565b6000600160088054905061390f9190615134565b9050600060096000848152602001908152602001600020549050600060088381548110613965577f4e487b7100000000000000000000000000000000000000000000000000000000600052603260045260246000fd5b9060005260206000200154905080600883815481106139ad577f4e487b7100000000000000000000000000000000000000000000000000000000600052603260045260246000fd5b906000526020600020018190555081600960008381526020019081526020016000208190555060096000858152602001908152602001600020600090556008805480613a22577f4e487b7100000000000000000000000000000000000000000000000000000000600052603160045260246000fd5b6001900381819060005260206000200160009055905550505050565b6000613a4983611842565b905081600660008573ffffffffffffffffffffffffffffffffffffffff1673ffffffffffffffffffffffffffffffffffffffff168152602001908152602001600020600083815260200190815260200160002081905550806007600084815260200190815260200160002081905550505050565b600073ffffffffffffffffffffffffffffffffffffffff168273ffffffffffffffffffffffffffffffffffffffff161415613b2d576040517f08c379a0000000000000000000000000000000000000000000000000000000008152600401613b2490614c34565b60405180910390fd5b613b3681612505565b15613b76576040517f08c379a0000000000000000000000000000000000000000000000000000000008152600401613b6d90614a74565b60405180910390fd5b613b82600083836132d6565b6001600360008473ffffffffffffffffffffffffffffffffffffffff1673ffffffffffffffffffffffffffffffffffffffff1681526020019081526020016000206000828254613bd29190614ee2565b92505081905550816002600083815260200190815260200160002060006101000a81548173ffffffffffffffffffffffffffffffffffffffff021916908373ffffffffffffffffffffffffffffffffffffffff160217905550808273ffffffffffffffffffffffffffffffffffffffff16600073ffffffffffffffffffffffffffffffffffffffff167fddf252ad1be2c89b69c2b068fc378daa952ba7f163c4a11628f55a4df523b3ef60405160405180910390a4613c93600083836133ea565b5050565b6000808273ffffffffffffffffffffffffffffffffffffffff163b119050919050565b828054613cc69061521e565b90600052602060002090601f016020900481019282613ce85760008555613d2f565b82601f10613d0157805160ff1916838001178555613d2f565b82800160010185558215613d2f579182015b82811115613d2e578251825591602001919060010190613d13565b5b509050613d3c9190613d40565b5090565b5b80821115613d59576000816000905550600101613d41565b5090565b6000613d70613d6b84614e1d565b614df8565b905082815260208101848484011115613d8857600080fd5b613d938482856151dc565b509392505050565b6000613dae613da984614e4e565b614df8565b905082815260208101848484011115613dc657600080fd5b613dd18482856151dc565b509392505050565b600081359050613de881615bd0565b92915050565b600081359050613dfd81615be7565b92915050565b600081359050613e1281615bfe565b92915050565b600081519050613e2781615bfe565b92915050565b600082601f830112613e3e57600080fd5b8135613e4e848260208601613d5d565b91505092915050565b600082601f830112613e6857600080fd5b8135613e78848260208601613d9b565b91505092915050565b600081359050613e9081615c15565b92915050565b600060208284031215613ea857600080fd5b6000613eb684828501613dd9565b91505092915050565b60008060408385031215613ed257600080fd5b6000613ee085828601613dd9565b9250506020613ef185828601613dd9565b9150509250929050565b600080600060608486031215613f1057600080fd5b6000613f1e86828701613dd9565b9350506020613f2f86828701613dd9565b9250506040613f4086828701613e81565b9150509250925092565b60008060008060808587031215613f6057600080fd5b6000613f6e87828801613dd9565b9450506020613f7f87828801613dd9565b9350506040613f9087828801613e81565b925050606085013567ffffffffffffffff811115613fad57600080fd5b613fb987828801613e2d565b91505092959194509250565b60008060408385031215613fd857600080fd5b6000613fe685828601613dd9565b9250506020613ff785828601613dee565b9150509250929050565b6000806040838503121561401457600080fd5b600061402285828601613dd9565b925050602061403385828601613e81565b9150509250929050565b60006020828403121561404f57600080fd5b600061405d84828501613dee565b91505092915050565b60006020828403121561407857600080fd5b600061408684828501613e03565b91505092915050565b6000602082840312156140a157600080fd5b60006140af84828501613e18565b91505092915050565b6000602082840312156140ca57600080fd5b600082013567ffffffffffffffff8111156140e457600080fd5b6140f084828501613e57565b91505092915050565b6000806040838503121561410c57600080fd5b600083013567ffffffffffffffff81111561412657600080fd5b61413285828601613e57565b925050602061414385828601613dd9565b9150509250929050565b6000806040838503121561416057600080fd5b600083013567ffffffffffffffff81111561417a57600080fd5b61418685828601613e57565b925050602061419785828601613e81565b9150509250929050565b6000602082840312156141b357600080fd5b60006141c184828501613e81565b91505092915050565b600080604083850312156141dd57600080fd5b60006141eb85828601613e81565b92505060206141fc85828601613e81565b9150509250929050565b61420f81615168565b82525050565b61421e8161517a565b82525050565b600061422f82614e94565b6142398185614eaa565b93506142498185602086016151eb565b614252816153b7565b840191505092915050565b600061426882614e9f565b6142728185614ec6565b93506142828185602086016151eb565b61428b816153b7565b840191505092915050565b60006142a182614e9f565b6142ab8185614ed7565b93506142bb8185602086016151eb565b80840191505092915050565b600081546142d48161521e565b6142de8186614ed7565b945060018216600081146142f9576001811461430a5761433d565b60ff1983168652818601935061433d565b61431385614e7f565b60005b8381101561433557815481890152600182019150602081019050614316565b838801955050505b50505092915050565b6000614353602383614ec6565b915061435e826153d5565b604082019050919050565b6000614376601083614ec6565b915061438182615424565b602082019050919050565b6000614399602283614ec6565b91506143a48261544d565b604082019050919050565b60006143bc602b83614ec6565b91506143c78261549c565b604082019050919050565b60006143df603283614ec6565b91506143ea826154eb565b604082019050919050565b6000614402601783614ec6565b915061440d8261553a565b602082019050919050565b6000614425602683614ec6565b915061443082615563565b604082019050919050565b6000614448602583614ec6565b9150614453826155b2565b604082019050919050565b600061446b601c83614ec6565b915061447682615601565b602082019050919050565b600061448e601583614ec6565b91506144998261562a565b602082019050919050565b60006144b1601983614ec6565b91506144bc82615653565b602082019050919050565b60006144d4602483614ec6565b91506144df8261567c565b604082019050919050565b60006144f7601983614ec6565b9150614502826156cb565b602082019050919050565b600061451a603a83614ec6565b9150614525826156f4565b604082019050919050565b600061453d602c83614ec6565b915061454882615743565b604082019050919050565b6000614560601683614ec6565b915061456b82615792565b602082019050919050565b6000614583601083614ec6565b915061458e826157bb565b602082019050919050565b60006145a6601983614ec6565b91506145b1826157e4565b602082019050919050565b60006145c9601c83614ec6565b91506145d48261580d565b602082019050919050565b60006145ec603883614ec6565b91506145f782615836565b604082019050919050565b600061460f602a83614ec6565b915061461a82615885565b604082019050919050565b6000614632602983614ec6565b915061463d826158d4565b604082019050919050565b6000614655602083614ec6565b915061466082615923565b602082019050919050565b6000614678602c83614ec6565b91506146838261594c565b604082019050919050565b600061469b602083614ec6565b91506146a68261599b565b602082019050919050565b60006146be601983614ec6565b91506146c9826159c4565b602082019050919050565b60006146e1601383614ec6565b91506146ec826159ed565b602082019050919050565b6000614704602f83614ec6565b915061470f82615a16565b604082019050919050565b6000614727601e83614ec6565b915061473282615a65565b602082019050919050565b600061474a602183614ec6565b915061475582615a8e565b604082019050919050565b600061476d600083614ebb565b915061477882615add565b600082019050919050565b6000614790603183614ec6565b915061479b82615ae0565b604082019050919050565b60006147b3601e83614ec6565b91506147be82615b2f565b602082019050919050565b60006147d6602c83614ec6565b91506147e182615b58565b604082019050919050565b60006147f9601983614ec6565b915061480482615ba7565b602082019050919050565b614818816151d2565b82525050565b600061482a8284614296565b915081905092915050565b60006148418285614296565b915061484d8284614296565b91508190509392505050565b60006148658285614296565b915061487182846142c7565b91508190509392505050565b600061488882614760565b9150819050919050565b60006020820190506148a76000830184614206565b92915050565b60006080820190506148c26000830187614206565b6148cf6020830186614206565b6148dc604083018561480f565b81810360608301526148ee8184614224565b905095945050505050565b600060208201905061490e6000830184614215565b92915050565b6000602082019050818103600083015261492e818461425d565b905092915050565b60006060820190508181036000830152614950818661425d565b905061495f602083018561480f565b61496c604083018461480f565b949350505050565b6000602082019050818103600083015261498d81614346565b9050919050565b600060208201905081810360008301526149ad81614369565b9050919050565b600060208201905081810360008301526149cd8161438c565b9050919050565b600060208201905081810360008301526149ed816143af565b9050919050565b60006020820190508181036000830152614a0d816143d2565b9050919050565b60006020820190508181036000830152614a2d816143f5565b9050919050565b60006020820190508181036000830152614a4d81614418565b9050919050565b60006020820190508181036000830152614a6d8161443b565b9050919050565b60006020820190508181036000830152614a8d8161445e565b9050919050565b60006020820190508181036000830152614aad81614481565b9050919050565b60006020820190508181036000830152614acd816144a4565b9050919050565b60006020820190508181036000830152614aed816144c7565b9050919050565b60006020820190508181036000830152614b0d816144ea565b9050919050565b60006020820190508181036000830152614b2d8161450d565b9050919050565b60006020820190508181036000830152614b4d81614530565b9050919050565b60006020820190508181036000830152614b6d81614553565b9050919050565b60006020820190508181036000830152614b8d81614576565b9050919050565b60006020820190508181036000830152614bad81614599565b9050919050565b60006020820190508181036000830152614bcd816145bc565b9050919050565b60006020820190508181036000830152614bed816145df565b9050919050565b60006020820190508181036000830152614c0d81614602565b9050919050565b60006020820190508181036000830152614c2d81614625565b9050919050565b60006020820190508181036000830152614c4d81614648565b9050919050565b60006020820190508181036000830152614c6d8161466b565b9050919050565b60006020820190508181036000830152614c8d8161468e565b9050919050565b60006020820190508181036000830152614cad816146b1565b9050919050565b60006020820190508181036000830152614ccd816146d4565b9050919050565b60006020820190508181036000830152614ced816146f7565b9050919050565b60006020820190508181036000830152614d0d8161471a565b9050919050565b60006020820190508181036000830152614d2d8161473d565b9050919050565b60006020820190508181036000830152614d4d81614783565b9050919050565b60006020820190508181036000830152614d6d816147a6565b9050919050565b60006020820190508181036000830152614d8d816147c9565b9050919050565b60006020820190508181036000830152614dad816147ec565b9050919050565b6000602082019050614dc9600083018461480f565b92915050565b6000604082019050614de4600083018561480f565b614df1602083018461480f565b9392505050565b6000614e02614e13565b9050614e0e8282615250565b919050565b6000604051905090565b600067ffffffffffffffff821115614e3857614e37615388565b5b614e41826153b7565b9050602081019050919050565b600067ffffffffffffffff821115614e6957614e68615388565b5b614e72826153b7565b9050602081019050919050565b60008190508160005260206000209050919050565b600081519050919050565b600081519050919050565b600082825260208201905092915050565b600081905092915050565b600082825260208201905092915050565b600081905092915050565b6000614eed826151d2565b9150614ef8836151d2565b9250827fffffffffffffffffffffffffffffffffffffffffffffffffffffffffffffffff03821115614f2d57614f2c6152fb565b5b828201905092915050565b6000614f43826151d2565b9150614f4e836151d2565b925082614f5e57614f5d61532a565b5b828204905092915050565b6000808291508390505b6001851115614fb357808604811115614f8f57614f8e6152fb565b5b6001851615614f9e5780820291505b8081029050614fac856153c8565b9450614f73565b94509492505050565b6000614fc7826151d2565b9150614fd2836151d2565b9250614fff7fffffffffffffffffffffffffffffffffffffffffffffffffffffffffffffffff8484615007565b905092915050565b60008261501757600190506150d3565b8161502557600090506150d3565b816001811461503b576002811461504557615074565b60019150506150d3565b60ff841115615057576150566152fb565b5b8360020a91508482111561506e5761506d6152fb565b5b506150d3565b5060208310610133831016604e8410600b84101617156150a95782820a9050838111156150a4576150a36152fb565b5b6150d3565b6150b68484846001614f69565b925090508184048111156150cd576150cc6152fb565b5b81810290505b9392505050565b60006150e5826151d2565b91506150f0836151d2565b9250817fffffffffffffffffffffffffffffffffffffffffffffffffffffffffffffffff0483118215151615615129576151286152fb565b5b828202905092915050565b600061513f826151d2565b915061514a836151d2565b92508282101561515d5761515c6152fb565b5b828203905092915050565b6000615173826151b2565b9050919050565b60008115159050919050565b60007fffffffff0000000000000000000000000000000000000000000000000000000082169050919050565b600073ffffffffffffffffffffffffffffffffffffffff82169050919050565b6000819050919050565b82818337600083830152505050565b60005b838110156152095780820151818401526020810190506151ee565b83811115615218576000848401525b50505050565b6000600282049050600182168061523657607f821691505b6020821081141561524a57615249615359565b5b50919050565b615259826153b7565b810181811067ffffffffffffffff8211171561527857615277615388565b5b80604052505050565b600061528c826151d2565b91507fffffffffffffffffffffffffffffffffffffffffffffffffffffffffffffffff8214156152bf576152be6152fb565b5b600182019050919050565b60006152d5826151d2565b91506152e0836151d2565b9250826152f0576152ef61532a565b5b828206905092915050565b7f4e487b7100000000000000000000000000000000000000000000000000000000600052601160045260246000fd5b7f4e487b7100000000000000000000000000000000000000000000000000000000600052601260045260246000fd5b7f4e487b7100000000000000000000000000000000000000000000000000000000600052602260045260246000fd5b7f4e487b7100000000000000000000000000000000000000000000000000000000600052604160045260246000fd5b6000601f19601f8301169050919050565b60008160011c9050919050565b7f4572726f723a20596f75206172656e6074206f776e657220746869732050726560008201527f6669780000000000000000000000000000000000000000000000000000000000602082015250565b7f5468697320707265666978206275737900000000000000000000000000000000600082015250565b7f4572726f723a20596f7520646f6e6074206f776e65722074686973207072656660008201527f6978000000000000000000000000000000000000000000000000000000000000602082015250565b7f455243373231456e756d657261626c653a206f776e657220696e646578206f7560008201527f74206f6620626f756e6473000000000000000000000000000000000000000000602082015250565b7f4552433732313a207472616e7366657220746f206e6f6e20455243373231526560008201527f63656976657220696d706c656d656e7465720000000000000000000000000000602082015250565b7f4572726f723a20696e636f727265637420707265666978000000000000000000600082015250565b7f4f776e61626c653a206e6577206f776e657220697320746865207a65726f206160008201527f6464726573730000000000000000000000000000000000000000000000000000602082015250565b7f4552433732313a207472616e736665722066726f6d20696e636f72726563742060008201527f6f776e6572000000000000000000000000000000000000000000000000000000602082015250565b7f4552433732313a20746f6b656e20616c7265616479206d696e74656400000000600082015250565b7f4572726f723a2052656e7420646f6e607420656e640000000000000000000000600082015250565b7f4572726f723a206475726174696f6e20696e636f727265637400000000000000600082015250565b7f4552433732313a207472616e7366657220746f20746865207a65726f2061646460008201527f7265737300000000000000000000000000000000000000000000000000000000602082015250565b7f4552433732313a20617070726f766520746f2063616c6c657200000000000000600082015250565b7f416464726573733a20756e61626c6520746f2073656e642076616c75652c207260008201527f6563697069656e74206d61792068617665207265766572746564000000000000602082015250565b7f4552433732313a206f70657261746f7220717565727920666f72206e6f6e657860008201527f697374656e7420746f6b656e0000000000000000000000000000000000000000602082015250565b7f4572726f723a20436f6e74726163742070617573656400000000000000000000600082015250565b7f4572726f7220696e20696e6465784f6600000000000000000000000000000000600082015250565b7f4572726f723a20656e642070726566697820636f756e74657200000000000000600082015250565b7f4572726f723a20696e636f72726563742076616c756520707269636500000000600082015250565b7f4552433732313a20617070726f76652063616c6c6572206973206e6f74206f7760008201527f6e6572206e6f7220617070726f76656420666f7220616c6c0000000000000000602082015250565b7f4552433732313a2062616c616e636520717565727920666f7220746865207a6560008201527f726f206164647265737300000000000000000000000000000000000000000000602082015250565b7f4552433732313a206f776e657220717565727920666f72206e6f6e657869737460008201527f656e7420746f6b656e0000000000000000000000000000000000000000000000602082015250565b7f4552433732313a206d696e7420746f20746865207a65726f2061646472657373600082015250565b7f4552433732313a20617070726f76656420717565727920666f72206e6f6e657860008201527f697374656e7420746f6b656e0000000000000000000000000000000000000000602082015250565b7f4f776e61626c653a2063616c6c6572206973206e6f7420746865206f776e6572600082015250565b7f4572726f723a2054686973207072656669782062696765737400000000000000600082015250565b7f4572726f723a20456d70747920737472696e6700000000000000000000000000600082015250565b7f4552433732314d657461646174613a2055524920717565727920666f72206e6f60008201527f6e6578697374656e7420746f6b656e0000000000000000000000000000000000602082015250565b7f4572726f723a20696e636f7272656374206c656e677468206e756d6265720000600082015250565b7f4552433732313a20617070726f76616c20746f2063757272656e74206f776e6560008201527f7200000000000000000000000000000000000000000000000000000000000000602082015250565b50565b7f4552433732313a207472616e736665722063616c6c6572206973206e6f74206f60008201527f776e6572206e6f7220617070726f766564000000000000000000000000000000602082015250565b7f4572726f723a2050726566697820636f6e7461696e7320612073706163650000600082015250565b7f455243373231456e756d657261626c653a20676c6f62616c20696e646578206f60008201527f7574206f6620626f756e64730000000000000000000000000000000000000000602082015250565b7f4572726f723a204d696e74205072656669782070617573656400000000000000600082015250565b615bd981615168565b8114615be457600080fd5b50565b615bf08161517a565b8114615bfb57600080fd5b50565b615c0781615186565b8114615c1257600080fd5b50565b615c1e816151d2565b8114615c2957600080fd5b5056fea264697066735822122084923bd0b37089344d94431d7bc18e7681c9bec4fcdc06a6b335481305552ce064736f6c63430008040033",
  "linkReferences": {},
  "deployedLinkReferences": {}
}